{
  "contracts/ICO.sol": {
    "ICO": {
      "abi": [
        {
          "inputs": [
            {
              "internalType": "address",
              "name": "_token",
              "type": "address"
            },
            {
              "internalType": "address",
              "name": "_usdt",
              "type": "address"
            },
            {
              "internalType": "uint256",
              "name": "_rate",
              "type": "uint256"
            },
            {
              "internalType": "uint256",
              "name": "_icoStart",
              "type": "uint256"
            },
            {
              "internalType": "uint256",
              "name": "_icoEnd",
              "type": "uint256"
            }
          ],
          "stateMutability": "nonpayable",
          "type": "constructor"
        },
        {
          "anonymous": false,
          "inputs": [
            {
              "indexed": true,
              "internalType": "address",
              "name": "buyer",
              "type": "address"
            },
            {
              "indexed": false,
              "internalType": "uint256",
              "name": "amount",
              "type": "uint256"
            }
          ],
          "name": "TokenBought",
          "type": "event"
        },
        {
          "anonymous": false,
          "inputs": [
            {
              "indexed": false,
              "internalType": "uint256",
              "name": "amount",
              "type": "uint256"
            }
          ],
          "name": "unsoldTokensBurned",
          "type": "event"
        },
        {
          "inputs": [],
          "name": "BurnUnsoldTokens",
          "outputs": [],
          "stateMutability": "nonpayable",
          "type": "function"
        },
        {
          "inputs": [
            {
              "internalType": "uint256",
              "name": "_USDTamount",
              "type": "uint256"
            }
          ],
          "name": "PreSale1",
          "outputs": [],
          "stateMutability": "nonpayable",
          "type": "function"
        },
        {
          "inputs": [
            {
              "internalType": "address",
              "name": "",
              "type": "address"
            }
          ],
          "name": "balances",
          "outputs": [
            {
              "internalType": "uint256",
              "name": "",
              "type": "uint256"
            }
          ],
          "stateMutability": "view",
          "type": "function"
        },
        {
          "inputs": [],
          "name": "icoEnd",
          "outputs": [
            {
              "internalType": "uint256",
              "name": "",
              "type": "uint256"
            }
          ],
          "stateMutability": "view",
          "type": "function"
        },
        {
          "inputs": [],
          "name": "icoStart",
          "outputs": [
            {
              "internalType": "uint256",
              "name": "",
              "type": "uint256"
            }
          ],
          "stateMutability": "view",
          "type": "function"
        },
        {
          "inputs": [],
          "name": "owner",
          "outputs": [
            {
              "internalType": "address",
              "name": "",
              "type": "address"
            }
          ],
          "stateMutability": "view",
          "type": "function"
        },
        {
          "inputs": [
            {
              "internalType": "uint256",
              "name": "_USDTamount",
              "type": "uint256"
            }
          ],
          "name": "preSale2",
          "outputs": [],
          "stateMutability": "nonpayable",
          "type": "function"
        },
        {
          "inputs": [],
          "name": "preSaleAmount",
          "outputs": [
            {
              "internalType": "uint256",
              "name": "",
              "type": "uint256"
            }
          ],
          "stateMutability": "view",
          "type": "function"
        },
        {
          "inputs": [],
          "name": "preSaleAmount2",
          "outputs": [
            {
              "internalType": "uint256",
              "name": "",
              "type": "uint256"
            }
          ],
          "stateMutability": "view",
          "type": "function"
        },
        {
          "inputs": [],
          "name": "rate",
          "outputs": [
            {
              "internalType": "uint256",
              "name": "",
              "type": "uint256"
            }
          ],
          "stateMutability": "view",
          "type": "function"
        },
        {
          "inputs": [],
          "name": "token",
          "outputs": [
            {
              "internalType": "contract Token1",
              "name": "",
              "type": "address"
            }
          ],
          "stateMutability": "view",
          "type": "function"
        },
        {
          "inputs": [],
          "name": "tokenSold",
          "outputs": [
            {
              "internalType": "uint256",
              "name": "",
              "type": "uint256"
            }
          ],
          "stateMutability": "view",
          "type": "function"
        },
        {
          "inputs": [],
          "name": "treasury",
          "outputs": [
            {
              "internalType": "address",
              "name": "",
              "type": "address"
            }
          ],
          "stateMutability": "view",
          "type": "function"
        },
        {
          "inputs": [],
          "name": "usdt",
          "outputs": [
            {
              "internalType": "contract Token2",
              "name": "",
              "type": "address"
            }
          ],
          "stateMutability": "view",
          "type": "function"
        }
      ],
      "evm": {
        "bytecode": {
          "linkReferences": {},
          "object": "60806040523480156200001157600080fd5b5060405162001835380380620018358339818101604052810190620000379190620003b1565b8082106200007c576040517f08c379a00000000000000000000000000000000000000000000000000000000081526004016200007390620004c0565b60405180910390fd5b60008311620000c2576040517f08c379a0000000000000000000000000000000000000000000000000000000008152600401620000b99062000532565b60405180910390fd5b846000806101000a81548173ffffffffffffffffffffffffffffffffffffffff021916908373ffffffffffffffffffffffffffffffffffffffff16021790555083600160006101000a81548173ffffffffffffffffffffffffffffffffffffffff021916908373ffffffffffffffffffffffffffffffffffffffff16021790555082600381905550816004819055508060058190555033600260006101000a81548173ffffffffffffffffffffffffffffffffffffffff021916908373ffffffffffffffffffffffffffffffffffffffff1602179055506064601460008054906101000a900473ffffffffffffffffffffffffffffffffffffffff1673ffffffffffffffffffffffffffffffffffffffff166318160ddd6040518163ffffffff1660e01b8152600401602060405180830381865afa15801562000209573d6000803e3d6000fd5b505050506040513d601f19601f820116820180604052508101906200022f919062000554565b6200023b9190620005b5565b6200024791906200062f565b6007819055506064601660008054906101000a900473ffffffffffffffffffffffffffffffffffffffff1673ffffffffffffffffffffffffffffffffffffffff166318160ddd6040518163ffffffff1660e01b8152600401602060405180830381865afa158015620002bd573d6000803e3d6000fd5b505050506040513d601f19601f82011682018060405250810190620002e3919062000554565b620002ef9190620005b5565b620002fb91906200062f565b600881905550505050505062000667565b600080fd5b600073ffffffffffffffffffffffffffffffffffffffff82169050919050565b60006200033e8262000311565b9050919050565b620003508162000331565b81146200035c57600080fd5b50565b600081519050620003708162000345565b92915050565b6000819050919050565b6200038b8162000376565b81146200039757600080fd5b50565b600081519050620003ab8162000380565b92915050565b600080600080600060a08688031215620003d057620003cf6200030c565b5b6000620003e0888289016200035f565b9550506020620003f3888289016200035f565b945050604062000406888289016200039a565b935050606062000419888289016200039a565b92505060806200042c888289016200039a565b9150509295509295909350565b600082825260208201905092915050565b7f49434f2073746172742074696d65206d757374206265206c657373207468616e60008201527f20656e642074696d650000000000000000000000000000000000000000000000602082015250565b6000620004a860298362000439565b9150620004b5826200044a565b604082019050919050565b60006020820190508181036000830152620004db8162000499565b9050919050565b7f52617465206d757374206e6f74206265207a65726f0000000000000000000000600082015250565b60006200051a60158362000439565b91506200052782620004e2565b602082019050919050565b600060208201905081810360008301526200054d816200050b565b9050919050565b6000602082840312156200056d576200056c6200030c565b5b60006200057d848285016200039a565b91505092915050565b7f4e487b7100000000000000000000000000000000000000000000000000000000600052601160045260246000fd5b6000620005c28262000376565b9150620005cf8362000376565b9250828202620005df8162000376565b91508282048414831517620005f957620005f862000586565b5b5092915050565b7f4e487b7100000000000000000000000000000000000000000000000000000000600052601260045260246000fd5b60006200063c8262000376565b9150620006498362000376565b9250826200065c576200065b62000600565b5b828204905092915050565b6111be80620006776000396000f3fe608060405234801561001057600080fd5b50600436106100ea5760003560e01c806361d027b31161008c5780638da5cb5b116100665780638da5cb5b14610229578063c75a94f614610247578063f0b3dd1814610251578063fc0c546a1461026f576100ea565b806361d027b3146101d15780637d012b8f146101ef578063827037db1461020b576100ea565b80632c4e722e116100c85780632c4e722e1461015b5780632f48ab7d14610179578063349244ce14610197578063519ee19e146101b3576100ea565b80630563451a146100ef57806307f4eace1461010d57806327e235e31461012b575b600080fd5b6100f761028d565b6040516101049190610b93565b60405180910390f35b610115610293565b6040516101229190610b93565b60405180910390f35b61014560048036038101906101409190610c11565b610299565b6040516101529190610b93565b60405180910390f35b6101636102b1565b6040516101709190610b93565b60405180910390f35b6101816102b7565b60405161018e9190610c9d565b60405180910390f35b6101b160048036038101906101ac9190610ce4565b6102dd565b005b6101bb6105f5565b6040516101c89190610b93565b60405180910390f35b6101d96105fb565b6040516101e69190610d20565b60405180910390f35b61020960048036038101906102049190610ce4565b610621565b005b610213610939565b6040516102209190610b93565b60405180910390f35b61023161093f565b60405161023e9190610d20565b60405180910390f35b61024f610965565b005b610259610b50565b6040516102669190610b93565b60405180910390f35b610277610b56565b6040516102849190610d5c565b60405180910390f35b60055481565b60075481565b600a6020528060005260406000206000915090505481565b60035481565b600160009054906101000a900473ffffffffffffffffffffffffffffffffffffffff1681565b60045442101580156102f157506005544211155b610330576040517f08c379a000000000000000000000000000000000000000000000000000000000815260040161032790610dd4565b60405180910390fd5b60008111610373576040517f08c379a000000000000000000000000000000000000000000000000000000000815260040161036a90610e40565b60405180910390fd5b6000600354826103839190610e8f565b90508060008054906101000a900473ffffffffffffffffffffffffffffffffffffffff1673ffffffffffffffffffffffffffffffffffffffff166370a08231306040518263ffffffff1660e01b81526004016103df9190610d20565b602060405180830381865afa1580156103fc573d6000803e3d6000fd5b505050506040513d601f19601f820116820180604052508101906104209190610ee6565b1015610461576040517f08c379a000000000000000000000000000000000000000000000000000000000815260040161045890610f5f565b60405180910390fd5b600160009054906101000a900473ffffffffffffffffffffffffffffffffffffffff1673ffffffffffffffffffffffffffffffffffffffff166323b872dd3330856040518463ffffffff1660e01b81526004016104c093929190610f7f565b6020604051808303816000875af11580156104df573d6000803e3d6000fd5b505050506040513d601f19601f820116820180604052508101906105039190610fee565b5060008054906101000a900473ffffffffffffffffffffffffffffffffffffffff1673ffffffffffffffffffffffffffffffffffffffff1663a9059cbb33836040518363ffffffff1660e01b815260040161055f92919061101b565b6020604051808303816000875af115801561057e573d6000803e3d6000fd5b505050506040513d601f19601f820116820180604052508101906105a29190610fee565b503373ffffffffffffffffffffffffffffffffffffffff167fa3a187cfc249a33f6c4046e8d418886eea8564f9dd214a32aa5ba08d9602b543826040516105e99190610b93565b60405180910390a25050565b60065481565b600960009054906101000a900473ffffffffffffffffffffffffffffffffffffffff1681565b600454421015801561063557506005544211155b610674576040517f08c379a000000000000000000000000000000000000000000000000000000000815260040161066b90610dd4565b60405180910390fd5b600081116106b7576040517f08c379a00000000000000000000000000000000000000000000000000000000081526004016106ae90610e40565b60405180910390fd5b6000600354826106c79190610e8f565b90508160008054906101000a900473ffffffffffffffffffffffffffffffffffffffff1673ffffffffffffffffffffffffffffffffffffffff166370a08231306040518263ffffffff1660e01b81526004016107239190610d20565b602060405180830381865afa158015610740573d6000803e3d6000fd5b505050506040513d601f19601f820116820180604052508101906107649190610ee6565b10156107a5576040517f08c379a000000000000000000000000000000000000000000000000000000000815260040161079c90611090565b60405180910390fd5b600160009054906101000a900473ffffffffffffffffffffffffffffffffffffffff1673ffffffffffffffffffffffffffffffffffffffff166323b872dd3330856040518463ffffffff1660e01b815260040161080493929190610f7f565b6020604051808303816000875af1158015610823573d6000803e3d6000fd5b505050506040513d601f19601f820116820180604052508101906108479190610fee565b5060008054906101000a900473ffffffffffffffffffffffffffffffffffffffff1673ffffffffffffffffffffffffffffffffffffffff1663a9059cbb33836040518363ffffffff1660e01b81526004016108a392919061101b565b6020604051808303816000875af11580156108c2573d6000803e3d6000fd5b505050506040513d601f19601f820116820180604052508101906108e69190610fee565b503373ffffffffffffffffffffffffffffffffffffffff167fa3a187cfc249a33f6c4046e8d418886eea8564f9dd214a32aa5ba08d9602b5438260405161092d9190610b93565b60405180910390a25050565b60045481565b600260009054906101000a900473ffffffffffffffffffffffffffffffffffffffff1681565b60055442116109a9576040517f08c379a00000000000000000000000000000000000000000000000000000000081526004016109a0906110fc565b60405180910390fd5b60008060009054906101000a900473ffffffffffffffffffffffffffffffffffffffff1673ffffffffffffffffffffffffffffffffffffffff166370a08231306040518263ffffffff1660e01b8152600401610a059190610d20565b602060405180830381865afa158015610a22573d6000803e3d6000fd5b505050506040513d601f19601f82011682018060405250810190610a469190610ee6565b905060008111610a8b576040517f08c379a0000000000000000000000000000000000000000000000000000000008152600401610a8290611168565b60405180910390fd5b60008054906101000a900473ffffffffffffffffffffffffffffffffffffffff1673ffffffffffffffffffffffffffffffffffffffff166342966c68826040518263ffffffff1660e01b8152600401610ae49190610b93565b600060405180830381600087803b158015610afe57600080fd5b505af1158015610b12573d6000803e3d6000fd5b505050507fc321b2067c777e3ba371af85dc87f4a99dc011bdc12109f5959e817104e84a3081604051610b459190610b93565b60405180910390a150565b60085481565b60008054906101000a900473ffffffffffffffffffffffffffffffffffffffff1681565b6000819050919050565b610b8d81610b7a565b82525050565b6000602082019050610ba86000830184610b84565b92915050565b600080fd5b600073ffffffffffffffffffffffffffffffffffffffff82169050919050565b6000610bde82610bb3565b9050919050565b610bee81610bd3565b8114610bf957600080fd5b50565b600081359050610c0b81610be5565b92915050565b600060208284031215610c2757610c26610bae565b5b6000610c3584828501610bfc565b91505092915050565b6000819050919050565b6000610c63610c5e610c5984610bb3565b610c3e565b610bb3565b9050919050565b6000610c7582610c48565b9050919050565b6000610c8782610c6a565b9050919050565b610c9781610c7c565b82525050565b6000602082019050610cb26000830184610c8e565b92915050565b610cc181610b7a565b8114610ccc57600080fd5b50565b600081359050610cde81610cb8565b92915050565b600060208284031215610cfa57610cf9610bae565b5b6000610d0884828501610ccf565b91505092915050565b610d1a81610bd3565b82525050565b6000602082019050610d356000830184610d11565b92915050565b6000610d4682610c6a565b9050919050565b610d5681610d3b565b82525050565b6000602082019050610d716000830184610d4d565b92915050565b600082825260208201905092915050565b7f49434f206973206e6f742072756e6e696e670000000000000000000000000000600082015250565b6000610dbe601283610d77565b9150610dc982610d88565b602082019050919050565b60006020820190508181036000830152610ded81610db1565b9050919050565b7f416d6f756e742073686f756c64206e6f74206265207a65726f00000000000000600082015250565b6000610e2a601983610d77565b9150610e3582610df4565b602082019050919050565b60006020820190508181036000830152610e5981610e1d565b9050919050565b7f4e487b7100000000000000000000000000000000000000000000000000000000600052601160045260246000fd5b6000610e9a82610b7a565b9150610ea583610b7a565b9250828202610eb381610b7a565b91508282048414831517610eca57610ec9610e60565b5b5092915050565b600081519050610ee081610cb8565b92915050565b600060208284031215610efc57610efb610bae565b5b6000610f0a84828501610ed1565b91505092915050565b7f496e73756666696369656e7420746f6b656e20616d6f756e7400000000000000600082015250565b6000610f49601983610d77565b9150610f5482610f13565b602082019050919050565b60006020820190508181036000830152610f7881610f3c565b9050919050565b6000606082019050610f946000830186610d11565b610fa16020830185610d11565b610fae6040830184610b84565b949350505050565b60008115159050919050565b610fcb81610fb6565b8114610fd657600080fd5b50565b600081519050610fe881610fc2565b92915050565b60006020828403121561100457611003610bae565b5b600061101284828501610fd9565b91505092915050565b60006040820190506110306000830185610d11565b61103d6020830184610b84565b9392505050565b7f696e73756666696369656e7420746f6b656e20616d6f756e7400000000000000600082015250565b600061107a601983610d77565b915061108582611044565b602082019050919050565b600060208201905081810360008301526110a98161106d565b9050919050565b7f49434f206973207374696c6c2072756e6e696e67000000000000000000000000600082015250565b60006110e6601483610d77565b91506110f1826110b0565b602082019050919050565b60006020820190508181036000830152611115816110d9565b9050919050565b7f73686f756c642062652067726561746572207468616e207a65726f0000000000600082015250565b6000611152601b83610d77565b915061115d8261111c565b602082019050919050565b6000602082019050818103600083015261118181611145565b905091905056fea2646970667358221220f3c006576e7b53708c8ff53c9b278880484805d20d98a161f508a3162282b1e564736f6c63430008180033",
          "opcodes": "PUSH1 0x80 PUSH1 0x40 MSTORE CALLVALUE DUP1 ISZERO PUSH3 0x11 JUMPI PUSH1 0x0 DUP1 REVERT JUMPDEST POP PUSH1 0x40 MLOAD PUSH3 0x1835 CODESIZE SUB DUP1 PUSH3 0x1835 DUP4 CODECOPY DUP2 DUP2 ADD PUSH1 0x40 MSTORE DUP2 ADD SWAP1 PUSH3 0x37 SWAP2 SWAP1 PUSH3 0x3B1 JUMP JUMPDEST DUP1 DUP3 LT PUSH3 0x7C JUMPI PUSH1 0x40 MLOAD PUSH32 0x8C379A000000000000000000000000000000000000000000000000000000000 DUP2 MSTORE PUSH1 0x4 ADD PUSH3 0x73 SWAP1 PUSH3 0x4C0 JUMP JUMPDEST PUSH1 0x40 MLOAD DUP1 SWAP2 SUB SWAP1 REVERT JUMPDEST PUSH1 0x0 DUP4 GT PUSH3 0xC2 JUMPI PUSH1 0x40 MLOAD PUSH32 0x8C379A000000000000000000000000000000000000000000000000000000000 DUP2 MSTORE PUSH1 0x4 ADD PUSH3 0xB9 SWAP1 PUSH3 0x532 JUMP JUMPDEST PUSH1 0x40 MLOAD DUP1 SWAP2 SUB SWAP1 REVERT JUMPDEST DUP5 PUSH1 0x0 DUP1 PUSH2 0x100 EXP DUP2 SLOAD DUP2 PUSH20 0xFFFFFFFFFFFFFFFFFFFFFFFFFFFFFFFFFFFFFFFF MUL NOT AND SWAP1 DUP4 PUSH20 0xFFFFFFFFFFFFFFFFFFFFFFFFFFFFFFFFFFFFFFFF AND MUL OR SWAP1 SSTORE POP DUP4 PUSH1 0x1 PUSH1 0x0 PUSH2 0x100 EXP DUP2 SLOAD DUP2 PUSH20 0xFFFFFFFFFFFFFFFFFFFFFFFFFFFFFFFFFFFFFFFF MUL NOT AND SWAP1 DUP4 PUSH20 0xFFFFFFFFFFFFFFFFFFFFFFFFFFFFFFFFFFFFFFFF AND MUL OR SWAP1 SSTORE POP DUP3 PUSH1 0x3 DUP2 SWAP1 SSTORE POP DUP2 PUSH1 0x4 DUP2 SWAP1 SSTORE POP DUP1 PUSH1 0x5 DUP2 SWAP1 SSTORE POP CALLER PUSH1 0x2 PUSH1 0x0 PUSH2 0x100 EXP DUP2 SLOAD DUP2 PUSH20 0xFFFFFFFFFFFFFFFFFFFFFFFFFFFFFFFFFFFFFFFF MUL NOT AND SWAP1 DUP4 PUSH20 0xFFFFFFFFFFFFFFFFFFFFFFFFFFFFFFFFFFFFFFFF AND MUL OR SWAP1 SSTORE POP PUSH1 0x64 PUSH1 0x14 PUSH1 0x0 DUP1 SLOAD SWAP1 PUSH2 0x100 EXP SWAP1 DIV PUSH20 0xFFFFFFFFFFFFFFFFFFFFFFFFFFFFFFFFFFFFFFFF AND PUSH20 0xFFFFFFFFFFFFFFFFFFFFFFFFFFFFFFFFFFFFFFFF AND PUSH4 0x18160DDD PUSH1 0x40 MLOAD DUP2 PUSH4 0xFFFFFFFF AND PUSH1 0xE0 SHL DUP2 MSTORE PUSH1 0x4 ADD PUSH1 0x20 PUSH1 0x40 MLOAD DUP1 DUP4 SUB DUP2 DUP7 GAS STATICCALL ISZERO DUP1 ISZERO PUSH3 0x209 JUMPI RETURNDATASIZE PUSH1 0x0 DUP1 RETURNDATACOPY RETURNDATASIZE PUSH1 0x0 REVERT JUMPDEST POP POP POP POP PUSH1 0x40 MLOAD RETURNDATASIZE PUSH1 0x1F NOT PUSH1 0x1F DUP3 ADD AND DUP3 ADD DUP1 PUSH1 0x40 MSTORE POP DUP2 ADD SWAP1 PUSH3 0x22F SWAP2 SWAP1 PUSH3 0x554 JUMP JUMPDEST PUSH3 0x23B SWAP2 SWAP1 PUSH3 0x5B5 JUMP JUMPDEST PUSH3 0x247 SWAP2 SWAP1 PUSH3 0x62F JUMP JUMPDEST PUSH1 0x7 DUP2 SWAP1 SSTORE POP PUSH1 0x64 PUSH1 0x16 PUSH1 0x0 DUP1 SLOAD SWAP1 PUSH2 0x100 EXP SWAP1 DIV PUSH20 0xFFFFFFFFFFFFFFFFFFFFFFFFFFFFFFFFFFFFFFFF AND PUSH20 0xFFFFFFFFFFFFFFFFFFFFFFFFFFFFFFFFFFFFFFFF AND PUSH4 0x18160DDD PUSH1 0x40 MLOAD DUP2 PUSH4 0xFFFFFFFF AND PUSH1 0xE0 SHL DUP2 MSTORE PUSH1 0x4 ADD PUSH1 0x20 PUSH1 0x40 MLOAD DUP1 DUP4 SUB DUP2 DUP7 GAS STATICCALL ISZERO DUP1 ISZERO PUSH3 0x2BD JUMPI RETURNDATASIZE PUSH1 0x0 DUP1 RETURNDATACOPY RETURNDATASIZE PUSH1 0x0 REVERT JUMPDEST POP POP POP POP PUSH1 0x40 MLOAD RETURNDATASIZE PUSH1 0x1F NOT PUSH1 0x1F DUP3 ADD AND DUP3 ADD DUP1 PUSH1 0x40 MSTORE POP DUP2 ADD SWAP1 PUSH3 0x2E3 SWAP2 SWAP1 PUSH3 0x554 JUMP JUMPDEST PUSH3 0x2EF SWAP2 SWAP1 PUSH3 0x5B5 JUMP JUMPDEST PUSH3 0x2FB SWAP2 SWAP1 PUSH3 0x62F JUMP JUMPDEST PUSH1 0x8 DUP2 SWAP1 SSTORE POP POP POP POP POP POP PUSH3 0x667 JUMP JUMPDEST PUSH1 0x0 DUP1 REVERT JUMPDEST PUSH1 0x0 PUSH20 0xFFFFFFFFFFFFFFFFFFFFFFFFFFFFFFFFFFFFFFFF DUP3 AND SWAP1 POP SWAP2 SWAP1 POP JUMP JUMPDEST PUSH1 0x0 PUSH3 0x33E DUP3 PUSH3 0x311 JUMP JUMPDEST SWAP1 POP SWAP2 SWAP1 POP JUMP JUMPDEST PUSH3 0x350 DUP2 PUSH3 0x331 JUMP JUMPDEST DUP2 EQ PUSH3 0x35C JUMPI PUSH1 0x0 DUP1 REVERT JUMPDEST POP JUMP JUMPDEST PUSH1 0x0 DUP2 MLOAD SWAP1 POP PUSH3 0x370 DUP2 PUSH3 0x345 JUMP JUMPDEST SWAP3 SWAP2 POP POP JUMP JUMPDEST PUSH1 0x0 DUP2 SWAP1 POP SWAP2 SWAP1 POP JUMP JUMPDEST PUSH3 0x38B DUP2 PUSH3 0x376 JUMP JUMPDEST DUP2 EQ PUSH3 0x397 JUMPI PUSH1 0x0 DUP1 REVERT JUMPDEST POP JUMP JUMPDEST PUSH1 0x0 DUP2 MLOAD SWAP1 POP PUSH3 0x3AB DUP2 PUSH3 0x380 JUMP JUMPDEST SWAP3 SWAP2 POP POP JUMP JUMPDEST PUSH1 0x0 DUP1 PUSH1 0x0 DUP1 PUSH1 0x0 PUSH1 0xA0 DUP7 DUP9 SUB SLT ISZERO PUSH3 0x3D0 JUMPI PUSH3 0x3CF PUSH3 0x30C JUMP JUMPDEST JUMPDEST PUSH1 0x0 PUSH3 0x3E0 DUP9 DUP3 DUP10 ADD PUSH3 0x35F JUMP JUMPDEST SWAP6 POP POP PUSH1 0x20 PUSH3 0x3F3 DUP9 DUP3 DUP10 ADD PUSH3 0x35F JUMP JUMPDEST SWAP5 POP POP PUSH1 0x40 PUSH3 0x406 DUP9 DUP3 DUP10 ADD PUSH3 0x39A JUMP JUMPDEST SWAP4 POP POP PUSH1 0x60 PUSH3 0x419 DUP9 DUP3 DUP10 ADD PUSH3 0x39A JUMP JUMPDEST SWAP3 POP POP PUSH1 0x80 PUSH3 0x42C DUP9 DUP3 DUP10 ADD PUSH3 0x39A JUMP JUMPDEST SWAP2 POP POP SWAP3 SWAP6 POP SWAP3 SWAP6 SWAP1 SWAP4 POP JUMP JUMPDEST PUSH1 0x0 DUP3 DUP3 MSTORE PUSH1 0x20 DUP3 ADD SWAP1 POP SWAP3 SWAP2 POP POP JUMP JUMPDEST PUSH32 0x49434F2073746172742074696D65206D757374206265206C657373207468616E PUSH1 0x0 DUP3 ADD MSTORE PUSH32 0x20656E642074696D650000000000000000000000000000000000000000000000 PUSH1 0x20 DUP3 ADD MSTORE POP JUMP JUMPDEST PUSH1 0x0 PUSH3 0x4A8 PUSH1 0x29 DUP4 PUSH3 0x439 JUMP JUMPDEST SWAP2 POP PUSH3 0x4B5 DUP3 PUSH3 0x44A JUMP JUMPDEST PUSH1 0x40 DUP3 ADD SWAP1 POP SWAP2 SWAP1 POP JUMP JUMPDEST PUSH1 0x0 PUSH1 0x20 DUP3 ADD SWAP1 POP DUP2 DUP2 SUB PUSH1 0x0 DUP4 ADD MSTORE PUSH3 0x4DB DUP2 PUSH3 0x499 JUMP JUMPDEST SWAP1 POP SWAP2 SWAP1 POP JUMP JUMPDEST PUSH32 0x52617465206D757374206E6F74206265207A65726F0000000000000000000000 PUSH1 0x0 DUP3 ADD MSTORE POP JUMP JUMPDEST PUSH1 0x0 PUSH3 0x51A PUSH1 0x15 DUP4 PUSH3 0x439 JUMP JUMPDEST SWAP2 POP PUSH3 0x527 DUP3 PUSH3 0x4E2 JUMP JUMPDEST PUSH1 0x20 DUP3 ADD SWAP1 POP SWAP2 SWAP1 POP JUMP JUMPDEST PUSH1 0x0 PUSH1 0x20 DUP3 ADD SWAP1 POP DUP2 DUP2 SUB PUSH1 0x0 DUP4 ADD MSTORE PUSH3 0x54D DUP2 PUSH3 0x50B JUMP JUMPDEST SWAP1 POP SWAP2 SWAP1 POP JUMP JUMPDEST PUSH1 0x0 PUSH1 0x20 DUP3 DUP5 SUB SLT ISZERO PUSH3 0x56D JUMPI PUSH3 0x56C PUSH3 0x30C JUMP JUMPDEST JUMPDEST PUSH1 0x0 PUSH3 0x57D DUP5 DUP3 DUP6 ADD PUSH3 0x39A JUMP JUMPDEST SWAP2 POP POP SWAP3 SWAP2 POP POP JUMP JUMPDEST PUSH32 0x4E487B7100000000000000000000000000000000000000000000000000000000 PUSH1 0x0 MSTORE PUSH1 0x11 PUSH1 0x4 MSTORE PUSH1 0x24 PUSH1 0x0 REVERT JUMPDEST PUSH1 0x0 PUSH3 0x5C2 DUP3 PUSH3 0x376 JUMP JUMPDEST SWAP2 POP PUSH3 0x5CF DUP4 PUSH3 0x376 JUMP JUMPDEST SWAP3 POP DUP3 DUP3 MUL PUSH3 0x5DF DUP2 PUSH3 0x376 JUMP JUMPDEST SWAP2 POP DUP3 DUP3 DIV DUP5 EQ DUP4 ISZERO OR PUSH3 0x5F9 JUMPI PUSH3 0x5F8 PUSH3 0x586 JUMP JUMPDEST JUMPDEST POP SWAP3 SWAP2 POP POP JUMP JUMPDEST PUSH32 0x4E487B7100000000000000000000000000000000000000000000000000000000 PUSH1 0x0 MSTORE PUSH1 0x12 PUSH1 0x4 MSTORE PUSH1 0x24 PUSH1 0x0 REVERT JUMPDEST PUSH1 0x0 PUSH3 0x63C DUP3 PUSH3 0x376 JUMP JUMPDEST SWAP2 POP PUSH3 0x649 DUP4 PUSH3 0x376 JUMP JUMPDEST SWAP3 POP DUP3 PUSH3 0x65C JUMPI PUSH3 0x65B PUSH3 0x600 JUMP JUMPDEST JUMPDEST DUP3 DUP3 DIV SWAP1 POP SWAP3 SWAP2 POP POP JUMP JUMPDEST PUSH2 0x11BE DUP1 PUSH3 0x677 PUSH1 0x0 CODECOPY PUSH1 0x0 RETURN INVALID PUSH1 0x80 PUSH1 0x40 MSTORE CALLVALUE DUP1 ISZERO PUSH2 0x10 JUMPI PUSH1 0x0 DUP1 REVERT JUMPDEST POP PUSH1 0x4 CALLDATASIZE LT PUSH2 0xEA JUMPI PUSH1 0x0 CALLDATALOAD PUSH1 0xE0 SHR DUP1 PUSH4 0x61D027B3 GT PUSH2 0x8C JUMPI DUP1 PUSH4 0x8DA5CB5B GT PUSH2 0x66 JUMPI DUP1 PUSH4 0x8DA5CB5B EQ PUSH2 0x229 JUMPI DUP1 PUSH4 0xC75A94F6 EQ PUSH2 0x247 JUMPI DUP1 PUSH4 0xF0B3DD18 EQ PUSH2 0x251 JUMPI DUP1 PUSH4 0xFC0C546A EQ PUSH2 0x26F JUMPI PUSH2 0xEA JUMP JUMPDEST DUP1 PUSH4 0x61D027B3 EQ PUSH2 0x1D1 JUMPI DUP1 PUSH4 0x7D012B8F EQ PUSH2 0x1EF JUMPI DUP1 PUSH4 0x827037DB EQ PUSH2 0x20B JUMPI PUSH2 0xEA JUMP JUMPDEST DUP1 PUSH4 0x2C4E722E GT PUSH2 0xC8 JUMPI DUP1 PUSH4 0x2C4E722E EQ PUSH2 0x15B JUMPI DUP1 PUSH4 0x2F48AB7D EQ PUSH2 0x179 JUMPI DUP1 PUSH4 0x349244CE EQ PUSH2 0x197 JUMPI DUP1 PUSH4 0x519EE19E EQ PUSH2 0x1B3 JUMPI PUSH2 0xEA JUMP JUMPDEST DUP1 PUSH4 0x563451A EQ PUSH2 0xEF JUMPI DUP1 PUSH4 0x7F4EACE EQ PUSH2 0x10D JUMPI DUP1 PUSH4 0x27E235E3 EQ PUSH2 0x12B JUMPI JUMPDEST PUSH1 0x0 DUP1 REVERT JUMPDEST PUSH2 0xF7 PUSH2 0x28D JUMP JUMPDEST PUSH1 0x40 MLOAD PUSH2 0x104 SWAP2 SWAP1 PUSH2 0xB93 JUMP JUMPDEST PUSH1 0x40 MLOAD DUP1 SWAP2 SUB SWAP1 RETURN JUMPDEST PUSH2 0x115 PUSH2 0x293 JUMP JUMPDEST PUSH1 0x40 MLOAD PUSH2 0x122 SWAP2 SWAP1 PUSH2 0xB93 JUMP JUMPDEST PUSH1 0x40 MLOAD DUP1 SWAP2 SUB SWAP1 RETURN JUMPDEST PUSH2 0x145 PUSH1 0x4 DUP1 CALLDATASIZE SUB DUP2 ADD SWAP1 PUSH2 0x140 SWAP2 SWAP1 PUSH2 0xC11 JUMP JUMPDEST PUSH2 0x299 JUMP JUMPDEST PUSH1 0x40 MLOAD PUSH2 0x152 SWAP2 SWAP1 PUSH2 0xB93 JUMP JUMPDEST PUSH1 0x40 MLOAD DUP1 SWAP2 SUB SWAP1 RETURN JUMPDEST PUSH2 0x163 PUSH2 0x2B1 JUMP JUMPDEST PUSH1 0x40 MLOAD PUSH2 0x170 SWAP2 SWAP1 PUSH2 0xB93 JUMP JUMPDEST PUSH1 0x40 MLOAD DUP1 SWAP2 SUB SWAP1 RETURN JUMPDEST PUSH2 0x181 PUSH2 0x2B7 JUMP JUMPDEST PUSH1 0x40 MLOAD PUSH2 0x18E SWAP2 SWAP1 PUSH2 0xC9D JUMP JUMPDEST PUSH1 0x40 MLOAD DUP1 SWAP2 SUB SWAP1 RETURN JUMPDEST PUSH2 0x1B1 PUSH1 0x4 DUP1 CALLDATASIZE SUB DUP2 ADD SWAP1 PUSH2 0x1AC SWAP2 SWAP1 PUSH2 0xCE4 JUMP JUMPDEST PUSH2 0x2DD JUMP JUMPDEST STOP JUMPDEST PUSH2 0x1BB PUSH2 0x5F5 JUMP JUMPDEST PUSH1 0x40 MLOAD PUSH2 0x1C8 SWAP2 SWAP1 PUSH2 0xB93 JUMP JUMPDEST PUSH1 0x40 MLOAD DUP1 SWAP2 SUB SWAP1 RETURN JUMPDEST PUSH2 0x1D9 PUSH2 0x5FB JUMP JUMPDEST PUSH1 0x40 MLOAD PUSH2 0x1E6 SWAP2 SWAP1 PUSH2 0xD20 JUMP JUMPDEST PUSH1 0x40 MLOAD DUP1 SWAP2 SUB SWAP1 RETURN JUMPDEST PUSH2 0x209 PUSH1 0x4 DUP1 CALLDATASIZE SUB DUP2 ADD SWAP1 PUSH2 0x204 SWAP2 SWAP1 PUSH2 0xCE4 JUMP JUMPDEST PUSH2 0x621 JUMP JUMPDEST STOP JUMPDEST PUSH2 0x213 PUSH2 0x939 JUMP JUMPDEST PUSH1 0x40 MLOAD PUSH2 0x220 SWAP2 SWAP1 PUSH2 0xB93 JUMP JUMPDEST PUSH1 0x40 MLOAD DUP1 SWAP2 SUB SWAP1 RETURN JUMPDEST PUSH2 0x231 PUSH2 0x93F JUMP JUMPDEST PUSH1 0x40 MLOAD PUSH2 0x23E SWAP2 SWAP1 PUSH2 0xD20 JUMP JUMPDEST PUSH1 0x40 MLOAD DUP1 SWAP2 SUB SWAP1 RETURN JUMPDEST PUSH2 0x24F PUSH2 0x965 JUMP JUMPDEST STOP JUMPDEST PUSH2 0x259 PUSH2 0xB50 JUMP JUMPDEST PUSH1 0x40 MLOAD PUSH2 0x266 SWAP2 SWAP1 PUSH2 0xB93 JUMP JUMPDEST PUSH1 0x40 MLOAD DUP1 SWAP2 SUB SWAP1 RETURN JUMPDEST PUSH2 0x277 PUSH2 0xB56 JUMP JUMPDEST PUSH1 0x40 MLOAD PUSH2 0x284 SWAP2 SWAP1 PUSH2 0xD5C JUMP JUMPDEST PUSH1 0x40 MLOAD DUP1 SWAP2 SUB SWAP1 RETURN JUMPDEST PUSH1 0x5 SLOAD DUP2 JUMP JUMPDEST PUSH1 0x7 SLOAD DUP2 JUMP JUMPDEST PUSH1 0xA PUSH1 0x20 MSTORE DUP1 PUSH1 0x0 MSTORE PUSH1 0x40 PUSH1 0x0 KECCAK256 PUSH1 0x0 SWAP2 POP SWAP1 POP SLOAD DUP2 JUMP JUMPDEST PUSH1 0x3 SLOAD DUP2 JUMP JUMPDEST PUSH1 0x1 PUSH1 0x0 SWAP1 SLOAD SWAP1 PUSH2 0x100 EXP SWAP1 DIV PUSH20 0xFFFFFFFFFFFFFFFFFFFFFFFFFFFFFFFFFFFFFFFF AND DUP2 JUMP JUMPDEST PUSH1 0x4 SLOAD TIMESTAMP LT ISZERO DUP1 ISZERO PUSH2 0x2F1 JUMPI POP PUSH1 0x5 SLOAD TIMESTAMP GT ISZERO JUMPDEST PUSH2 0x330 JUMPI PUSH1 0x40 MLOAD PUSH32 0x8C379A000000000000000000000000000000000000000000000000000000000 DUP2 MSTORE PUSH1 0x4 ADD PUSH2 0x327 SWAP1 PUSH2 0xDD4 JUMP JUMPDEST PUSH1 0x40 MLOAD DUP1 SWAP2 SUB SWAP1 REVERT JUMPDEST PUSH1 0x0 DUP2 GT PUSH2 0x373 JUMPI PUSH1 0x40 MLOAD PUSH32 0x8C379A000000000000000000000000000000000000000000000000000000000 DUP2 MSTORE PUSH1 0x4 ADD PUSH2 0x36A SWAP1 PUSH2 0xE40 JUMP JUMPDEST PUSH1 0x40 MLOAD DUP1 SWAP2 SUB SWAP1 REVERT JUMPDEST PUSH1 0x0 PUSH1 0x3 SLOAD DUP3 PUSH2 0x383 SWAP2 SWAP1 PUSH2 0xE8F JUMP JUMPDEST SWAP1 POP DUP1 PUSH1 0x0 DUP1 SLOAD SWAP1 PUSH2 0x100 EXP SWAP1 DIV PUSH20 0xFFFFFFFFFFFFFFFFFFFFFFFFFFFFFFFFFFFFFFFF AND PUSH20 0xFFFFFFFFFFFFFFFFFFFFFFFFFFFFFFFFFFFFFFFF AND PUSH4 0x70A08231 ADDRESS PUSH1 0x40 MLOAD DUP3 PUSH4 0xFFFFFFFF AND PUSH1 0xE0 SHL DUP2 MSTORE PUSH1 0x4 ADD PUSH2 0x3DF SWAP2 SWAP1 PUSH2 0xD20 JUMP JUMPDEST PUSH1 0x20 PUSH1 0x40 MLOAD DUP1 DUP4 SUB DUP2 DUP7 GAS STATICCALL ISZERO DUP1 ISZERO PUSH2 0x3FC JUMPI RETURNDATASIZE PUSH1 0x0 DUP1 RETURNDATACOPY RETURNDATASIZE PUSH1 0x0 REVERT JUMPDEST POP POP POP POP PUSH1 0x40 MLOAD RETURNDATASIZE PUSH1 0x1F NOT PUSH1 0x1F DUP3 ADD AND DUP3 ADD DUP1 PUSH1 0x40 MSTORE POP DUP2 ADD SWAP1 PUSH2 0x420 SWAP2 SWAP1 PUSH2 0xEE6 JUMP JUMPDEST LT ISZERO PUSH2 0x461 JUMPI PUSH1 0x40 MLOAD PUSH32 0x8C379A000000000000000000000000000000000000000000000000000000000 DUP2 MSTORE PUSH1 0x4 ADD PUSH2 0x458 SWAP1 PUSH2 0xF5F JUMP JUMPDEST PUSH1 0x40 MLOAD DUP1 SWAP2 SUB SWAP1 REVERT JUMPDEST PUSH1 0x1 PUSH1 0x0 SWAP1 SLOAD SWAP1 PUSH2 0x100 EXP SWAP1 DIV PUSH20 0xFFFFFFFFFFFFFFFFFFFFFFFFFFFFFFFFFFFFFFFF AND PUSH20 0xFFFFFFFFFFFFFFFFFFFFFFFFFFFFFFFFFFFFFFFF AND PUSH4 0x23B872DD CALLER ADDRESS DUP6 PUSH1 0x40 MLOAD DUP5 PUSH4 0xFFFFFFFF AND PUSH1 0xE0 SHL DUP2 MSTORE PUSH1 0x4 ADD PUSH2 0x4C0 SWAP4 SWAP3 SWAP2 SWAP1 PUSH2 0xF7F JUMP JUMPDEST PUSH1 0x20 PUSH1 0x40 MLOAD DUP1 DUP4 SUB DUP2 PUSH1 0x0 DUP8 GAS CALL ISZERO DUP1 ISZERO PUSH2 0x4DF JUMPI RETURNDATASIZE PUSH1 0x0 DUP1 RETURNDATACOPY RETURNDATASIZE PUSH1 0x0 REVERT JUMPDEST POP POP POP POP PUSH1 0x40 MLOAD RETURNDATASIZE PUSH1 0x1F NOT PUSH1 0x1F DUP3 ADD AND DUP3 ADD DUP1 PUSH1 0x40 MSTORE POP DUP2 ADD SWAP1 PUSH2 0x503 SWAP2 SWAP1 PUSH2 0xFEE JUMP JUMPDEST POP PUSH1 0x0 DUP1 SLOAD SWAP1 PUSH2 0x100 EXP SWAP1 DIV PUSH20 0xFFFFFFFFFFFFFFFFFFFFFFFFFFFFFFFFFFFFFFFF AND PUSH20 0xFFFFFFFFFFFFFFFFFFFFFFFFFFFFFFFFFFFFFFFF AND PUSH4 0xA9059CBB CALLER DUP4 PUSH1 0x40 MLOAD DUP4 PUSH4 0xFFFFFFFF AND PUSH1 0xE0 SHL DUP2 MSTORE PUSH1 0x4 ADD PUSH2 0x55F SWAP3 SWAP2 SWAP1 PUSH2 0x101B JUMP JUMPDEST PUSH1 0x20 PUSH1 0x40 MLOAD DUP1 DUP4 SUB DUP2 PUSH1 0x0 DUP8 GAS CALL ISZERO DUP1 ISZERO PUSH2 0x57E JUMPI RETURNDATASIZE PUSH1 0x0 DUP1 RETURNDATACOPY RETURNDATASIZE PUSH1 0x0 REVERT JUMPDEST POP POP POP POP PUSH1 0x40 MLOAD RETURNDATASIZE PUSH1 0x1F NOT PUSH1 0x1F DUP3 ADD AND DUP3 ADD DUP1 PUSH1 0x40 MSTORE POP DUP2 ADD SWAP1 PUSH2 0x5A2 SWAP2 SWAP1 PUSH2 0xFEE JUMP JUMPDEST POP CALLER PUSH20 0xFFFFFFFFFFFFFFFFFFFFFFFFFFFFFFFFFFFFFFFF AND PUSH32 0xA3A187CFC249A33F6C4046E8D418886EEA8564F9DD214A32AA5BA08D9602B543 DUP3 PUSH1 0x40 MLOAD PUSH2 0x5E9 SWAP2 SWAP1 PUSH2 0xB93 JUMP JUMPDEST PUSH1 0x40 MLOAD DUP1 SWAP2 SUB SWAP1 LOG2 POP POP JUMP JUMPDEST PUSH1 0x6 SLOAD DUP2 JUMP JUMPDEST PUSH1 0x9 PUSH1 0x0 SWAP1 SLOAD SWAP1 PUSH2 0x100 EXP SWAP1 DIV PUSH20 0xFFFFFFFFFFFFFFFFFFFFFFFFFFFFFFFFFFFFFFFF AND DUP2 JUMP JUMPDEST PUSH1 0x4 SLOAD TIMESTAMP LT ISZERO DUP1 ISZERO PUSH2 0x635 JUMPI POP PUSH1 0x5 SLOAD TIMESTAMP GT ISZERO JUMPDEST PUSH2 0x674 JUMPI PUSH1 0x40 MLOAD PUSH32 0x8C379A000000000000000000000000000000000000000000000000000000000 DUP2 MSTORE PUSH1 0x4 ADD PUSH2 0x66B SWAP1 PUSH2 0xDD4 JUMP JUMPDEST PUSH1 0x40 MLOAD DUP1 SWAP2 SUB SWAP1 REVERT JUMPDEST PUSH1 0x0 DUP2 GT PUSH2 0x6B7 JUMPI PUSH1 0x40 MLOAD PUSH32 0x8C379A000000000000000000000000000000000000000000000000000000000 DUP2 MSTORE PUSH1 0x4 ADD PUSH2 0x6AE SWAP1 PUSH2 0xE40 JUMP JUMPDEST PUSH1 0x40 MLOAD DUP1 SWAP2 SUB SWAP1 REVERT JUMPDEST PUSH1 0x0 PUSH1 0x3 SLOAD DUP3 PUSH2 0x6C7 SWAP2 SWAP1 PUSH2 0xE8F JUMP JUMPDEST SWAP1 POP DUP2 PUSH1 0x0 DUP1 SLOAD SWAP1 PUSH2 0x100 EXP SWAP1 DIV PUSH20 0xFFFFFFFFFFFFFFFFFFFFFFFFFFFFFFFFFFFFFFFF AND PUSH20 0xFFFFFFFFFFFFFFFFFFFFFFFFFFFFFFFFFFFFFFFF AND PUSH4 0x70A08231 ADDRESS PUSH1 0x40 MLOAD DUP3 PUSH4 0xFFFFFFFF AND PUSH1 0xE0 SHL DUP2 MSTORE PUSH1 0x4 ADD PUSH2 0x723 SWAP2 SWAP1 PUSH2 0xD20 JUMP JUMPDEST PUSH1 0x20 PUSH1 0x40 MLOAD DUP1 DUP4 SUB DUP2 DUP7 GAS STATICCALL ISZERO DUP1 ISZERO PUSH2 0x740 JUMPI RETURNDATASIZE PUSH1 0x0 DUP1 RETURNDATACOPY RETURNDATASIZE PUSH1 0x0 REVERT JUMPDEST POP POP POP POP PUSH1 0x40 MLOAD RETURNDATASIZE PUSH1 0x1F NOT PUSH1 0x1F DUP3 ADD AND DUP3 ADD DUP1 PUSH1 0x40 MSTORE POP DUP2 ADD SWAP1 PUSH2 0x764 SWAP2 SWAP1 PUSH2 0xEE6 JUMP JUMPDEST LT ISZERO PUSH2 0x7A5 JUMPI PUSH1 0x40 MLOAD PUSH32 0x8C379A000000000000000000000000000000000000000000000000000000000 DUP2 MSTORE PUSH1 0x4 ADD PUSH2 0x79C SWAP1 PUSH2 0x1090 JUMP JUMPDEST PUSH1 0x40 MLOAD DUP1 SWAP2 SUB SWAP1 REVERT JUMPDEST PUSH1 0x1 PUSH1 0x0 SWAP1 SLOAD SWAP1 PUSH2 0x100 EXP SWAP1 DIV PUSH20 0xFFFFFFFFFFFFFFFFFFFFFFFFFFFFFFFFFFFFFFFF AND PUSH20 0xFFFFFFFFFFFFFFFFFFFFFFFFFFFFFFFFFFFFFFFF AND PUSH4 0x23B872DD CALLER ADDRESS DUP6 PUSH1 0x40 MLOAD DUP5 PUSH4 0xFFFFFFFF AND PUSH1 0xE0 SHL DUP2 MSTORE PUSH1 0x4 ADD PUSH2 0x804 SWAP4 SWAP3 SWAP2 SWAP1 PUSH2 0xF7F JUMP JUMPDEST PUSH1 0x20 PUSH1 0x40 MLOAD DUP1 DUP4 SUB DUP2 PUSH1 0x0 DUP8 GAS CALL ISZERO DUP1 ISZERO PUSH2 0x823 JUMPI RETURNDATASIZE PUSH1 0x0 DUP1 RETURNDATACOPY RETURNDATASIZE PUSH1 0x0 REVERT JUMPDEST POP POP POP POP PUSH1 0x40 MLOAD RETURNDATASIZE PUSH1 0x1F NOT PUSH1 0x1F DUP3 ADD AND DUP3 ADD DUP1 PUSH1 0x40 MSTORE POP DUP2 ADD SWAP1 PUSH2 0x847 SWAP2 SWAP1 PUSH2 0xFEE JUMP JUMPDEST POP PUSH1 0x0 DUP1 SLOAD SWAP1 PUSH2 0x100 EXP SWAP1 DIV PUSH20 0xFFFFFFFFFFFFFFFFFFFFFFFFFFFFFFFFFFFFFFFF AND PUSH20 0xFFFFFFFFFFFFFFFFFFFFFFFFFFFFFFFFFFFFFFFF AND PUSH4 0xA9059CBB CALLER DUP4 PUSH1 0x40 MLOAD DUP4 PUSH4 0xFFFFFFFF AND PUSH1 0xE0 SHL DUP2 MSTORE PUSH1 0x4 ADD PUSH2 0x8A3 SWAP3 SWAP2 SWAP1 PUSH2 0x101B JUMP JUMPDEST PUSH1 0x20 PUSH1 0x40 MLOAD DUP1 DUP4 SUB DUP2 PUSH1 0x0 DUP8 GAS CALL ISZERO DUP1 ISZERO PUSH2 0x8C2 JUMPI RETURNDATASIZE PUSH1 0x0 DUP1 RETURNDATACOPY RETURNDATASIZE PUSH1 0x0 REVERT JUMPDEST POP POP POP POP PUSH1 0x40 MLOAD RETURNDATASIZE PUSH1 0x1F NOT PUSH1 0x1F DUP3 ADD AND DUP3 ADD DUP1 PUSH1 0x40 MSTORE POP DUP2 ADD SWAP1 PUSH2 0x8E6 SWAP2 SWAP1 PUSH2 0xFEE JUMP JUMPDEST POP CALLER PUSH20 0xFFFFFFFFFFFFFFFFFFFFFFFFFFFFFFFFFFFFFFFF AND PUSH32 0xA3A187CFC249A33F6C4046E8D418886EEA8564F9DD214A32AA5BA08D9602B543 DUP3 PUSH1 0x40 MLOAD PUSH2 0x92D SWAP2 SWAP1 PUSH2 0xB93 JUMP JUMPDEST PUSH1 0x40 MLOAD DUP1 SWAP2 SUB SWAP1 LOG2 POP POP JUMP JUMPDEST PUSH1 0x4 SLOAD DUP2 JUMP JUMPDEST PUSH1 0x2 PUSH1 0x0 SWAP1 SLOAD SWAP1 PUSH2 0x100 EXP SWAP1 DIV PUSH20 0xFFFFFFFFFFFFFFFFFFFFFFFFFFFFFFFFFFFFFFFF AND DUP2 JUMP JUMPDEST PUSH1 0x5 SLOAD TIMESTAMP GT PUSH2 0x9A9 JUMPI PUSH1 0x40 MLOAD PUSH32 0x8C379A000000000000000000000000000000000000000000000000000000000 DUP2 MSTORE PUSH1 0x4 ADD PUSH2 0x9A0 SWAP1 PUSH2 0x10FC JUMP JUMPDEST PUSH1 0x40 MLOAD DUP1 SWAP2 SUB SWAP1 REVERT JUMPDEST PUSH1 0x0 DUP1 PUSH1 0x0 SWAP1 SLOAD SWAP1 PUSH2 0x100 EXP SWAP1 DIV PUSH20 0xFFFFFFFFFFFFFFFFFFFFFFFFFFFFFFFFFFFFFFFF AND PUSH20 0xFFFFFFFFFFFFFFFFFFFFFFFFFFFFFFFFFFFFFFFF AND PUSH4 0x70A08231 ADDRESS PUSH1 0x40 MLOAD DUP3 PUSH4 0xFFFFFFFF AND PUSH1 0xE0 SHL DUP2 MSTORE PUSH1 0x4 ADD PUSH2 0xA05 SWAP2 SWAP1 PUSH2 0xD20 JUMP JUMPDEST PUSH1 0x20 PUSH1 0x40 MLOAD DUP1 DUP4 SUB DUP2 DUP7 GAS STATICCALL ISZERO DUP1 ISZERO PUSH2 0xA22 JUMPI RETURNDATASIZE PUSH1 0x0 DUP1 RETURNDATACOPY RETURNDATASIZE PUSH1 0x0 REVERT JUMPDEST POP POP POP POP PUSH1 0x40 MLOAD RETURNDATASIZE PUSH1 0x1F NOT PUSH1 0x1F DUP3 ADD AND DUP3 ADD DUP1 PUSH1 0x40 MSTORE POP DUP2 ADD SWAP1 PUSH2 0xA46 SWAP2 SWAP1 PUSH2 0xEE6 JUMP JUMPDEST SWAP1 POP PUSH1 0x0 DUP2 GT PUSH2 0xA8B JUMPI PUSH1 0x40 MLOAD PUSH32 0x8C379A000000000000000000000000000000000000000000000000000000000 DUP2 MSTORE PUSH1 0x4 ADD PUSH2 0xA82 SWAP1 PUSH2 0x1168 JUMP JUMPDEST PUSH1 0x40 MLOAD DUP1 SWAP2 SUB SWAP1 REVERT JUMPDEST PUSH1 0x0 DUP1 SLOAD SWAP1 PUSH2 0x100 EXP SWAP1 DIV PUSH20 0xFFFFFFFFFFFFFFFFFFFFFFFFFFFFFFFFFFFFFFFF AND PUSH20 0xFFFFFFFFFFFFFFFFFFFFFFFFFFFFFFFFFFFFFFFF AND PUSH4 0x42966C68 DUP3 PUSH1 0x40 MLOAD DUP3 PUSH4 0xFFFFFFFF AND PUSH1 0xE0 SHL DUP2 MSTORE PUSH1 0x4 ADD PUSH2 0xAE4 SWAP2 SWAP1 PUSH2 0xB93 JUMP JUMPDEST PUSH1 0x0 PUSH1 0x40 MLOAD DUP1 DUP4 SUB DUP2 PUSH1 0x0 DUP8 DUP1 EXTCODESIZE ISZERO DUP1 ISZERO PUSH2 0xAFE JUMPI PUSH1 0x0 DUP1 REVERT JUMPDEST POP GAS CALL ISZERO DUP1 ISZERO PUSH2 0xB12 JUMPI RETURNDATASIZE PUSH1 0x0 DUP1 RETURNDATACOPY RETURNDATASIZE PUSH1 0x0 REVERT JUMPDEST POP POP POP POP PUSH32 0xC321B2067C777E3BA371AF85DC87F4A99DC011BDC12109F5959E817104E84A30 DUP2 PUSH1 0x40 MLOAD PUSH2 0xB45 SWAP2 SWAP1 PUSH2 0xB93 JUMP JUMPDEST PUSH1 0x40 MLOAD DUP1 SWAP2 SUB SWAP1 LOG1 POP JUMP JUMPDEST PUSH1 0x8 SLOAD DUP2 JUMP JUMPDEST PUSH1 0x0 DUP1 SLOAD SWAP1 PUSH2 0x100 EXP SWAP1 DIV PUSH20 0xFFFFFFFFFFFFFFFFFFFFFFFFFFFFFFFFFFFFFFFF AND DUP2 JUMP JUMPDEST PUSH1 0x0 DUP2 SWAP1 POP SWAP2 SWAP1 POP JUMP JUMPDEST PUSH2 0xB8D DUP2 PUSH2 0xB7A JUMP JUMPDEST DUP3 MSTORE POP POP JUMP JUMPDEST PUSH1 0x0 PUSH1 0x20 DUP3 ADD SWAP1 POP PUSH2 0xBA8 PUSH1 0x0 DUP4 ADD DUP5 PUSH2 0xB84 JUMP JUMPDEST SWAP3 SWAP2 POP POP JUMP JUMPDEST PUSH1 0x0 DUP1 REVERT JUMPDEST PUSH1 0x0 PUSH20 0xFFFFFFFFFFFFFFFFFFFFFFFFFFFFFFFFFFFFFFFF DUP3 AND SWAP1 POP SWAP2 SWAP1 POP JUMP JUMPDEST PUSH1 0x0 PUSH2 0xBDE DUP3 PUSH2 0xBB3 JUMP JUMPDEST SWAP1 POP SWAP2 SWAP1 POP JUMP JUMPDEST PUSH2 0xBEE DUP2 PUSH2 0xBD3 JUMP JUMPDEST DUP2 EQ PUSH2 0xBF9 JUMPI PUSH1 0x0 DUP1 REVERT JUMPDEST POP JUMP JUMPDEST PUSH1 0x0 DUP2 CALLDATALOAD SWAP1 POP PUSH2 0xC0B DUP2 PUSH2 0xBE5 JUMP JUMPDEST SWAP3 SWAP2 POP POP JUMP JUMPDEST PUSH1 0x0 PUSH1 0x20 DUP3 DUP5 SUB SLT ISZERO PUSH2 0xC27 JUMPI PUSH2 0xC26 PUSH2 0xBAE JUMP JUMPDEST JUMPDEST PUSH1 0x0 PUSH2 0xC35 DUP5 DUP3 DUP6 ADD PUSH2 0xBFC JUMP JUMPDEST SWAP2 POP POP SWAP3 SWAP2 POP POP JUMP JUMPDEST PUSH1 0x0 DUP2 SWAP1 POP SWAP2 SWAP1 POP JUMP JUMPDEST PUSH1 0x0 PUSH2 0xC63 PUSH2 0xC5E PUSH2 0xC59 DUP5 PUSH2 0xBB3 JUMP JUMPDEST PUSH2 0xC3E JUMP JUMPDEST PUSH2 0xBB3 JUMP JUMPDEST SWAP1 POP SWAP2 SWAP1 POP JUMP JUMPDEST PUSH1 0x0 PUSH2 0xC75 DUP3 PUSH2 0xC48 JUMP JUMPDEST SWAP1 POP SWAP2 SWAP1 POP JUMP JUMPDEST PUSH1 0x0 PUSH2 0xC87 DUP3 PUSH2 0xC6A JUMP JUMPDEST SWAP1 POP SWAP2 SWAP1 POP JUMP JUMPDEST PUSH2 0xC97 DUP2 PUSH2 0xC7C JUMP JUMPDEST DUP3 MSTORE POP POP JUMP JUMPDEST PUSH1 0x0 PUSH1 0x20 DUP3 ADD SWAP1 POP PUSH2 0xCB2 PUSH1 0x0 DUP4 ADD DUP5 PUSH2 0xC8E JUMP JUMPDEST SWAP3 SWAP2 POP POP JUMP JUMPDEST PUSH2 0xCC1 DUP2 PUSH2 0xB7A JUMP JUMPDEST DUP2 EQ PUSH2 0xCCC JUMPI PUSH1 0x0 DUP1 REVERT JUMPDEST POP JUMP JUMPDEST PUSH1 0x0 DUP2 CALLDATALOAD SWAP1 POP PUSH2 0xCDE DUP2 PUSH2 0xCB8 JUMP JUMPDEST SWAP3 SWAP2 POP POP JUMP JUMPDEST PUSH1 0x0 PUSH1 0x20 DUP3 DUP5 SUB SLT ISZERO PUSH2 0xCFA JUMPI PUSH2 0xCF9 PUSH2 0xBAE JUMP JUMPDEST JUMPDEST PUSH1 0x0 PUSH2 0xD08 DUP5 DUP3 DUP6 ADD PUSH2 0xCCF JUMP JUMPDEST SWAP2 POP POP SWAP3 SWAP2 POP POP JUMP JUMPDEST PUSH2 0xD1A DUP2 PUSH2 0xBD3 JUMP JUMPDEST DUP3 MSTORE POP POP JUMP JUMPDEST PUSH1 0x0 PUSH1 0x20 DUP3 ADD SWAP1 POP PUSH2 0xD35 PUSH1 0x0 DUP4 ADD DUP5 PUSH2 0xD11 JUMP JUMPDEST SWAP3 SWAP2 POP POP JUMP JUMPDEST PUSH1 0x0 PUSH2 0xD46 DUP3 PUSH2 0xC6A JUMP JUMPDEST SWAP1 POP SWAP2 SWAP1 POP JUMP JUMPDEST PUSH2 0xD56 DUP2 PUSH2 0xD3B JUMP JUMPDEST DUP3 MSTORE POP POP JUMP JUMPDEST PUSH1 0x0 PUSH1 0x20 DUP3 ADD SWAP1 POP PUSH2 0xD71 PUSH1 0x0 DUP4 ADD DUP5 PUSH2 0xD4D JUMP JUMPDEST SWAP3 SWAP2 POP POP JUMP JUMPDEST PUSH1 0x0 DUP3 DUP3 MSTORE PUSH1 0x20 DUP3 ADD SWAP1 POP SWAP3 SWAP2 POP POP JUMP JUMPDEST PUSH32 0x49434F206973206E6F742072756E6E696E670000000000000000000000000000 PUSH1 0x0 DUP3 ADD MSTORE POP JUMP JUMPDEST PUSH1 0x0 PUSH2 0xDBE PUSH1 0x12 DUP4 PUSH2 0xD77 JUMP JUMPDEST SWAP2 POP PUSH2 0xDC9 DUP3 PUSH2 0xD88 JUMP JUMPDEST PUSH1 0x20 DUP3 ADD SWAP1 POP SWAP2 SWAP1 POP JUMP JUMPDEST PUSH1 0x0 PUSH1 0x20 DUP3 ADD SWAP1 POP DUP2 DUP2 SUB PUSH1 0x0 DUP4 ADD MSTORE PUSH2 0xDED DUP2 PUSH2 0xDB1 JUMP JUMPDEST SWAP1 POP SWAP2 SWAP1 POP JUMP JUMPDEST PUSH32 0x416D6F756E742073686F756C64206E6F74206265207A65726F00000000000000 PUSH1 0x0 DUP3 ADD MSTORE POP JUMP JUMPDEST PUSH1 0x0 PUSH2 0xE2A PUSH1 0x19 DUP4 PUSH2 0xD77 JUMP JUMPDEST SWAP2 POP PUSH2 0xE35 DUP3 PUSH2 0xDF4 JUMP JUMPDEST PUSH1 0x20 DUP3 ADD SWAP1 POP SWAP2 SWAP1 POP JUMP JUMPDEST PUSH1 0x0 PUSH1 0x20 DUP3 ADD SWAP1 POP DUP2 DUP2 SUB PUSH1 0x0 DUP4 ADD MSTORE PUSH2 0xE59 DUP2 PUSH2 0xE1D JUMP JUMPDEST SWAP1 POP SWAP2 SWAP1 POP JUMP JUMPDEST PUSH32 0x4E487B7100000000000000000000000000000000000000000000000000000000 PUSH1 0x0 MSTORE PUSH1 0x11 PUSH1 0x4 MSTORE PUSH1 0x24 PUSH1 0x0 REVERT JUMPDEST PUSH1 0x0 PUSH2 0xE9A DUP3 PUSH2 0xB7A JUMP JUMPDEST SWAP2 POP PUSH2 0xEA5 DUP4 PUSH2 0xB7A JUMP JUMPDEST SWAP3 POP DUP3 DUP3 MUL PUSH2 0xEB3 DUP2 PUSH2 0xB7A JUMP JUMPDEST SWAP2 POP DUP3 DUP3 DIV DUP5 EQ DUP4 ISZERO OR PUSH2 0xECA JUMPI PUSH2 0xEC9 PUSH2 0xE60 JUMP JUMPDEST JUMPDEST POP SWAP3 SWAP2 POP POP JUMP JUMPDEST PUSH1 0x0 DUP2 MLOAD SWAP1 POP PUSH2 0xEE0 DUP2 PUSH2 0xCB8 JUMP JUMPDEST SWAP3 SWAP2 POP POP JUMP JUMPDEST PUSH1 0x0 PUSH1 0x20 DUP3 DUP5 SUB SLT ISZERO PUSH2 0xEFC JUMPI PUSH2 0xEFB PUSH2 0xBAE JUMP JUMPDEST JUMPDEST PUSH1 0x0 PUSH2 0xF0A DUP5 DUP3 DUP6 ADD PUSH2 0xED1 JUMP JUMPDEST SWAP2 POP POP SWAP3 SWAP2 POP POP JUMP JUMPDEST PUSH32 0x496E73756666696369656E7420746F6B656E20616D6F756E7400000000000000 PUSH1 0x0 DUP3 ADD MSTORE POP JUMP JUMPDEST PUSH1 0x0 PUSH2 0xF49 PUSH1 0x19 DUP4 PUSH2 0xD77 JUMP JUMPDEST SWAP2 POP PUSH2 0xF54 DUP3 PUSH2 0xF13 JUMP JUMPDEST PUSH1 0x20 DUP3 ADD SWAP1 POP SWAP2 SWAP1 POP JUMP JUMPDEST PUSH1 0x0 PUSH1 0x20 DUP3 ADD SWAP1 POP DUP2 DUP2 SUB PUSH1 0x0 DUP4 ADD MSTORE PUSH2 0xF78 DUP2 PUSH2 0xF3C JUMP JUMPDEST SWAP1 POP SWAP2 SWAP1 POP JUMP JUMPDEST PUSH1 0x0 PUSH1 0x60 DUP3 ADD SWAP1 POP PUSH2 0xF94 PUSH1 0x0 DUP4 ADD DUP7 PUSH2 0xD11 JUMP JUMPDEST PUSH2 0xFA1 PUSH1 0x20 DUP4 ADD DUP6 PUSH2 0xD11 JUMP JUMPDEST PUSH2 0xFAE PUSH1 0x40 DUP4 ADD DUP5 PUSH2 0xB84 JUMP JUMPDEST SWAP5 SWAP4 POP POP POP POP JUMP JUMPDEST PUSH1 0x0 DUP2 ISZERO ISZERO SWAP1 POP SWAP2 SWAP1 POP JUMP JUMPDEST PUSH2 0xFCB DUP2 PUSH2 0xFB6 JUMP JUMPDEST DUP2 EQ PUSH2 0xFD6 JUMPI PUSH1 0x0 DUP1 REVERT JUMPDEST POP JUMP JUMPDEST PUSH1 0x0 DUP2 MLOAD SWAP1 POP PUSH2 0xFE8 DUP2 PUSH2 0xFC2 JUMP JUMPDEST SWAP3 SWAP2 POP POP JUMP JUMPDEST PUSH1 0x0 PUSH1 0x20 DUP3 DUP5 SUB SLT ISZERO PUSH2 0x1004 JUMPI PUSH2 0x1003 PUSH2 0xBAE JUMP JUMPDEST JUMPDEST PUSH1 0x0 PUSH2 0x1012 DUP5 DUP3 DUP6 ADD PUSH2 0xFD9 JUMP JUMPDEST SWAP2 POP POP SWAP3 SWAP2 POP POP JUMP JUMPDEST PUSH1 0x0 PUSH1 0x40 DUP3 ADD SWAP1 POP PUSH2 0x1030 PUSH1 0x0 DUP4 ADD DUP6 PUSH2 0xD11 JUMP JUMPDEST PUSH2 0x103D PUSH1 0x20 DUP4 ADD DUP5 PUSH2 0xB84 JUMP JUMPDEST SWAP4 SWAP3 POP POP POP JUMP JUMPDEST PUSH32 0x696E73756666696369656E7420746F6B656E20616D6F756E7400000000000000 PUSH1 0x0 DUP3 ADD MSTORE POP JUMP JUMPDEST PUSH1 0x0 PUSH2 0x107A PUSH1 0x19 DUP4 PUSH2 0xD77 JUMP JUMPDEST SWAP2 POP PUSH2 0x1085 DUP3 PUSH2 0x1044 JUMP JUMPDEST PUSH1 0x20 DUP3 ADD SWAP1 POP SWAP2 SWAP1 POP JUMP JUMPDEST PUSH1 0x0 PUSH1 0x20 DUP3 ADD SWAP1 POP DUP2 DUP2 SUB PUSH1 0x0 DUP4 ADD MSTORE PUSH2 0x10A9 DUP2 PUSH2 0x106D JUMP JUMPDEST SWAP1 POP SWAP2 SWAP1 POP JUMP JUMPDEST PUSH32 0x49434F206973207374696C6C2072756E6E696E67000000000000000000000000 PUSH1 0x0 DUP3 ADD MSTORE POP JUMP JUMPDEST PUSH1 0x0 PUSH2 0x10E6 PUSH1 0x14 DUP4 PUSH2 0xD77 JUMP JUMPDEST SWAP2 POP PUSH2 0x10F1 DUP3 PUSH2 0x10B0 JUMP JUMPDEST PUSH1 0x20 DUP3 ADD SWAP1 POP SWAP2 SWAP1 POP JUMP JUMPDEST PUSH1 0x0 PUSH1 0x20 DUP3 ADD SWAP1 POP DUP2 DUP2 SUB PUSH1 0x0 DUP4 ADD MSTORE PUSH2 0x1115 DUP2 PUSH2 0x10D9 JUMP JUMPDEST SWAP1 POP SWAP2 SWAP1 POP JUMP JUMPDEST PUSH32 0x73686F756C642062652067726561746572207468616E207A65726F0000000000 PUSH1 0x0 DUP3 ADD MSTORE POP JUMP JUMPDEST PUSH1 0x0 PUSH2 0x1152 PUSH1 0x1B DUP4 PUSH2 0xD77 JUMP JUMPDEST SWAP2 POP PUSH2 0x115D DUP3 PUSH2 0x111C JUMP JUMPDEST PUSH1 0x20 DUP3 ADD SWAP1 POP SWAP2 SWAP1 POP JUMP JUMPDEST PUSH1 0x0 PUSH1 0x20 DUP3 ADD SWAP1 POP DUP2 DUP2 SUB PUSH1 0x0 DUP4 ADD MSTORE PUSH2 0x1181 DUP2 PUSH2 0x1145 JUMP JUMPDEST SWAP1 POP SWAP2 SWAP1 POP JUMP INVALID LOG2 PUSH5 0x6970667358 0x22 SLT KECCAK256 RETURN 0xC0 MOD JUMPI PUSH15 0x7B53708C8FF53C9B278880484805D2 0xD SWAP9 LOG1 PUSH2 0xF508 LOG3 AND 0x22 DUP3 0xB1 0xE5 PUSH5 0x736F6C6343 STOP ADDMOD XOR STOP CALLER "
        },
        "methodIdentifiers": {
          "BurnUnsoldTokens()": "c75a94f6",
          "PreSale1(uint256)": "349244ce",
          "balances(address)": "27e235e3",
          "icoEnd()": "0563451a",
          "icoStart()": "827037db",
          "owner()": "8da5cb5b",
          "preSale2(uint256)": "7d012b8f",
          "preSaleAmount()": "07f4eace",
          "preSaleAmount2()": "f0b3dd18",
          "rate()": "2c4e722e",
          "token()": "fc0c546a",
          "tokenSold()": "519ee19e",
          "treasury()": "61d027b3",
          "usdt()": "2f48ab7d"
        }
      }
    }
  }
}