{
  "_format": "hh-sol-artifact-1",
  "contractName": "ICO",
  "sourceName": "contracts/ICO.sol",
  "abi": [
    {
      "inputs": [
        {
          "internalType": "address",
          "name": "_token",
          "type": "address"
        },
        {
          "internalType": "address",
          "name": "_usdt",
          "type": "address"
        },
        {
          "internalType": "uint256",
          "name": "_rate",
          "type": "uint256"
        },
        {
          "internalType": "uint256",
          "name": "_icoStart",
          "type": "uint256"
        },
        {
          "internalType": "uint256",
          "name": "_icoEnd",
          "type": "uint256"
        }
      ],
      "stateMutability": "nonpayable",
      "type": "constructor"
    },
    {
      "anonymous": false,
      "inputs": [
        {
          "indexed": true,
          "internalType": "address",
          "name": "buyer",
          "type": "address"
        },
        {
          "indexed": false,
          "internalType": "uint256",
          "name": "amount",
          "type": "uint256"
        }
      ],
      "name": "TokenBought",
      "type": "event"
    },
    {
      "anonymous": false,
      "inputs": [
        {
          "indexed": false,
          "internalType": "uint256",
          "name": "amount",
          "type": "uint256"
        }
      ],
      "name": "unsoldTokensBurned",
      "type": "event"
    },
    {
      "inputs": [],
      "name": "BurnUnsoldTokens",
      "outputs": [],
      "stateMutability": "nonpayable",
      "type": "function"
    },
    {
      "inputs": [
        {
          "internalType": "uint256",
          "name": "_USDTamount",
          "type": "uint256"
        }
      ],
      "name": "PreSale1",
      "outputs": [],
      "stateMutability": "nonpayable",
      "type": "function"
    },
    {
      "inputs": [
        {
          "internalType": "address",
          "name": "",
          "type": "address"
        }
      ],
      "name": "balances",
      "outputs": [
        {
          "internalType": "uint256",
          "name": "",
          "type": "uint256"
        }
      ],
      "stateMutability": "view",
      "type": "function"
    },
    {
      "inputs": [],
      "name": "icoEnd",
      "outputs": [
        {
          "internalType": "uint256",
          "name": "",
          "type": "uint256"
        }
      ],
      "stateMutability": "view",
      "type": "function"
    },
    {
      "inputs": [],
      "name": "icoStart",
      "outputs": [
        {
          "internalType": "uint256",
          "name": "",
          "type": "uint256"
        }
      ],
      "stateMutability": "view",
      "type": "function"
    },
    {
      "inputs": [],
      "name": "owner",
      "outputs": [
        {
          "internalType": "address",
          "name": "",
          "type": "address"
        }
      ],
      "stateMutability": "view",
      "type": "function"
    },
    {
      "inputs": [
        {
          "internalType": "uint256",
          "name": "_USDTamount",
          "type": "uint256"
        }
      ],
      "name": "preSale2",
      "outputs": [],
      "stateMutability": "nonpayable",
      "type": "function"
    },
    {
      "inputs": [],
      "name": "preSaleAmount",
      "outputs": [
        {
          "internalType": "uint256",
          "name": "",
          "type": "uint256"
        }
      ],
      "stateMutability": "view",
      "type": "function"
    },
    {
      "inputs": [],
      "name": "preSaleAmount2",
      "outputs": [
        {
          "internalType": "uint256",
          "name": "",
          "type": "uint256"
        }
      ],
      "stateMutability": "view",
      "type": "function"
    },
    {
      "inputs": [],
      "name": "rate",
      "outputs": [
        {
          "internalType": "uint256",
          "name": "",
          "type": "uint256"
        }
      ],
      "stateMutability": "view",
      "type": "function"
    },
    {
      "inputs": [],
      "name": "token",
      "outputs": [
        {
          "internalType": "contract Token1",
          "name": "",
          "type": "address"
        }
      ],
      "stateMutability": "view",
      "type": "function"
    },
    {
      "inputs": [],
      "name": "tokenSold",
      "outputs": [
        {
          "internalType": "uint256",
          "name": "",
          "type": "uint256"
        }
      ],
      "stateMutability": "view",
      "type": "function"
    },
    {
      "inputs": [],
      "name": "treasury",
      "outputs": [
        {
          "internalType": "address",
          "name": "",
          "type": "address"
        }
      ],
      "stateMutability": "view",
      "type": "function"
    },
    {
      "inputs": [],
      "name": "usdt",
      "outputs": [
        {
          "internalType": "contract Token2",
          "name": "",
          "type": "address"
        }
      ],
      "stateMutability": "view",
      "type": "function"
    }
  ],
  "bytecode": "0x60806040523480156200001157600080fd5b5060405162001835380380620018358339818101604052810190620000379190620003b1565b8082106200007c576040517f08c379a00000000000000000000000000000000000000000000000000000000081526004016200007390620004c0565b60405180910390fd5b60008311620000c2576040517f08c379a0000000000000000000000000000000000000000000000000000000008152600401620000b99062000532565b60405180910390fd5b846000806101000a81548173ffffffffffffffffffffffffffffffffffffffff021916908373ffffffffffffffffffffffffffffffffffffffff16021790555083600160006101000a81548173ffffffffffffffffffffffffffffffffffffffff021916908373ffffffffffffffffffffffffffffffffffffffff16021790555082600381905550816004819055508060058190555033600260006101000a81548173ffffffffffffffffffffffffffffffffffffffff021916908373ffffffffffffffffffffffffffffffffffffffff1602179055506064601460008054906101000a900473ffffffffffffffffffffffffffffffffffffffff1673ffffffffffffffffffffffffffffffffffffffff166318160ddd6040518163ffffffff1660e01b8152600401602060405180830381865afa15801562000209573d6000803e3d6000fd5b505050506040513d601f19601f820116820180604052508101906200022f919062000554565b6200023b9190620005b5565b6200024791906200062f565b6007819055506064601660008054906101000a900473ffffffffffffffffffffffffffffffffffffffff1673ffffffffffffffffffffffffffffffffffffffff166318160ddd6040518163ffffffff1660e01b8152600401602060405180830381865afa158015620002bd573d6000803e3d6000fd5b505050506040513d601f19601f82011682018060405250810190620002e3919062000554565b620002ef9190620005b5565b620002fb91906200062f565b600881905550505050505062000667565b600080fd5b600073ffffffffffffffffffffffffffffffffffffffff82169050919050565b60006200033e8262000311565b9050919050565b620003508162000331565b81146200035c57600080fd5b50565b600081519050620003708162000345565b92915050565b6000819050919050565b6200038b8162000376565b81146200039757600080fd5b50565b600081519050620003ab8162000380565b92915050565b600080600080600060a08688031215620003d057620003cf6200030c565b5b6000620003e0888289016200035f565b9550506020620003f3888289016200035f565b945050604062000406888289016200039a565b935050606062000419888289016200039a565b92505060806200042c888289016200039a565b9150509295509295909350565b600082825260208201905092915050565b7f49434f2073746172742074696d65206d757374206265206c657373207468616e60008201527f20656e642074696d650000000000000000000000000000000000000000000000602082015250565b6000620004a860298362000439565b9150620004b5826200044a565b604082019050919050565b60006020820190508181036000830152620004db8162000499565b9050919050565b7f52617465206d757374206e6f74206265207a65726f0000000000000000000000600082015250565b60006200051a60158362000439565b91506200052782620004e2565b602082019050919050565b600060208201905081810360008301526200054d816200050b565b9050919050565b6000602082840312156200056d576200056c6200030c565b5b60006200057d848285016200039a565b91505092915050565b7f4e487b7100000000000000000000000000000000000000000000000000000000600052601160045260246000fd5b6000620005c28262000376565b9150620005cf8362000376565b9250828202620005df8162000376565b91508282048414831517620005f957620005f862000586565b5b5092915050565b7f4e487b7100000000000000000000000000000000000000000000000000000000600052601260045260246000fd5b60006200063c8262000376565b9150620006498362000376565b9250826200065c576200065b62000600565b5b828204905092915050565b6111be80620006776000396000f3fe608060405234801561001057600080fd5b50600436106100ea5760003560e01c806361d027b31161008c5780638da5cb5b116100665780638da5cb5b14610229578063c75a94f614610247578063f0b3dd1814610251578063fc0c546a1461026f576100ea565b806361d027b3146101d15780637d012b8f146101ef578063827037db1461020b576100ea565b80632c4e722e116100c85780632c4e722e1461015b5780632f48ab7d14610179578063349244ce14610197578063519ee19e146101b3576100ea565b80630563451a146100ef57806307f4eace1461010d57806327e235e31461012b575b600080fd5b6100f761028d565b6040516101049190610b93565b60405180910390f35b610115610293565b6040516101229190610b93565b60405180910390f35b61014560048036038101906101409190610c11565b610299565b6040516101529190610b93565b60405180910390f35b6101636102b1565b6040516101709190610b93565b60405180910390f35b6101816102b7565b60405161018e9190610c9d565b60405180910390f35b6101b160048036038101906101ac9190610ce4565b6102dd565b005b6101bb6105f5565b6040516101c89190610b93565b60405180910390f35b6101d96105fb565b6040516101e69190610d20565b60405180910390f35b61020960048036038101906102049190610ce4565b610621565b005b610213610939565b6040516102209190610b93565b60405180910390f35b61023161093f565b60405161023e9190610d20565b60405180910390f35b61024f610965565b005b610259610b50565b6040516102669190610b93565b60405180910390f35b610277610b56565b6040516102849190610d5c565b60405180910390f35b60055481565b60075481565b600a6020528060005260406000206000915090505481565b60035481565b600160009054906101000a900473ffffffffffffffffffffffffffffffffffffffff1681565b60045442101580156102f157506005544211155b610330576040517f08c379a000000000000000000000000000000000000000000000000000000000815260040161032790610dd4565b60405180910390fd5b60008111610373576040517f08c379a000000000000000000000000000000000000000000000000000000000815260040161036a90610e40565b60405180910390fd5b6000600354826103839190610e8f565b90508060008054906101000a900473ffffffffffffffffffffffffffffffffffffffff1673ffffffffffffffffffffffffffffffffffffffff166370a08231306040518263ffffffff1660e01b81526004016103df9190610d20565b602060405180830381865afa1580156103fc573d6000803e3d6000fd5b505050506040513d601f19601f820116820180604052508101906104209190610ee6565b1015610461576040517f08c379a000000000000000000000000000000000000000000000000000000000815260040161045890610f5f565b60405180910390fd5b600160009054906101000a900473ffffffffffffffffffffffffffffffffffffffff1673ffffffffffffffffffffffffffffffffffffffff166323b872dd3330856040518463ffffffff1660e01b81526004016104c093929190610f7f565b6020604051808303816000875af11580156104df573d6000803e3d6000fd5b505050506040513d601f19601f820116820180604052508101906105039190610fee565b5060008054906101000a900473ffffffffffffffffffffffffffffffffffffffff1673ffffffffffffffffffffffffffffffffffffffff1663a9059cbb33836040518363ffffffff1660e01b815260040161055f92919061101b565b6020604051808303816000875af115801561057e573d6000803e3d6000fd5b505050506040513d601f19601f820116820180604052508101906105a29190610fee565b503373ffffffffffffffffffffffffffffffffffffffff167fa3a187cfc249a33f6c4046e8d418886eea8564f9dd214a32aa5ba08d9602b543826040516105e99190610b93565b60405180910390a25050565b60065481565b600960009054906101000a900473ffffffffffffffffffffffffffffffffffffffff1681565b600454421015801561063557506005544211155b610674576040517f08c379a000000000000000000000000000000000000000000000000000000000815260040161066b90610dd4565b60405180910390fd5b600081116106b7576040517f08c379a00000000000000000000000000000000000000000000000000000000081526004016106ae90610e40565b60405180910390fd5b6000600354826106c79190610e8f565b90508160008054906101000a900473ffffffffffffffffffffffffffffffffffffffff1673ffffffffffffffffffffffffffffffffffffffff166370a08231306040518263ffffffff1660e01b81526004016107239190610d20565b602060405180830381865afa158015610740573d6000803e3d6000fd5b505050506040513d601f19601f820116820180604052508101906107649190610ee6565b10156107a5576040517f08c379a000000000000000000000000000000000000000000000000000000000815260040161079c90611090565b60405180910390fd5b600160009054906101000a900473ffffffffffffffffffffffffffffffffffffffff1673ffffffffffffffffffffffffffffffffffffffff166323b872dd3330856040518463ffffffff1660e01b815260040161080493929190610f7f565b6020604051808303816000875af1158015610823573d6000803e3d6000fd5b505050506040513d601f19601f820116820180604052508101906108479190610fee565b5060008054906101000a900473ffffffffffffffffffffffffffffffffffffffff1673ffffffffffffffffffffffffffffffffffffffff1663a9059cbb33836040518363ffffffff1660e01b81526004016108a392919061101b565b6020604051808303816000875af11580156108c2573d6000803e3d6000fd5b505050506040513d601f19601f820116820180604052508101906108e69190610fee565b503373ffffffffffffffffffffffffffffffffffffffff167fa3a187cfc249a33f6c4046e8d418886eea8564f9dd214a32aa5ba08d9602b5438260405161092d9190610b93565b60405180910390a25050565b60045481565b600260009054906101000a900473ffffffffffffffffffffffffffffffffffffffff1681565b60055442116109a9576040517f08c379a00000000000000000000000000000000000000000000000000000000081526004016109a0906110fc565b60405180910390fd5b60008060009054906101000a900473ffffffffffffffffffffffffffffffffffffffff1673ffffffffffffffffffffffffffffffffffffffff166370a08231306040518263ffffffff1660e01b8152600401610a059190610d20565b602060405180830381865afa158015610a22573d6000803e3d6000fd5b505050506040513d601f19601f82011682018060405250810190610a469190610ee6565b905060008111610a8b576040517f08c379a0000000000000000000000000000000000000000000000000000000008152600401610a8290611168565b60405180910390fd5b60008054906101000a900473ffffffffffffffffffffffffffffffffffffffff1673ffffffffffffffffffffffffffffffffffffffff166342966c68826040518263ffffffff1660e01b8152600401610ae49190610b93565b600060405180830381600087803b158015610afe57600080fd5b505af1158015610b12573d6000803e3d6000fd5b505050507fc321b2067c777e3ba371af85dc87f4a99dc011bdc12109f5959e817104e84a3081604051610b459190610b93565b60405180910390a150565b60085481565b60008054906101000a900473ffffffffffffffffffffffffffffffffffffffff1681565b6000819050919050565b610b8d81610b7a565b82525050565b6000602082019050610ba86000830184610b84565b92915050565b600080fd5b600073ffffffffffffffffffffffffffffffffffffffff82169050919050565b6000610bde82610bb3565b9050919050565b610bee81610bd3565b8114610bf957600080fd5b50565b600081359050610c0b81610be5565b92915050565b600060208284031215610c2757610c26610bae565b5b6000610c3584828501610bfc565b91505092915050565b6000819050919050565b6000610c63610c5e610c5984610bb3565b610c3e565b610bb3565b9050919050565b6000610c7582610c48565b9050919050565b6000610c8782610c6a565b9050919050565b610c9781610c7c565b82525050565b6000602082019050610cb26000830184610c8e565b92915050565b610cc181610b7a565b8114610ccc57600080fd5b50565b600081359050610cde81610cb8565b92915050565b600060208284031215610cfa57610cf9610bae565b5b6000610d0884828501610ccf565b91505092915050565b610d1a81610bd3565b82525050565b6000602082019050610d356000830184610d11565b92915050565b6000610d4682610c6a565b9050919050565b610d5681610d3b565b82525050565b6000602082019050610d716000830184610d4d565b92915050565b600082825260208201905092915050565b7f49434f206973206e6f742072756e6e696e670000000000000000000000000000600082015250565b6000610dbe601283610d77565b9150610dc982610d88565b602082019050919050565b60006020820190508181036000830152610ded81610db1565b9050919050565b7f416d6f756e742073686f756c64206e6f74206265207a65726f00000000000000600082015250565b6000610e2a601983610d77565b9150610e3582610df4565b602082019050919050565b60006020820190508181036000830152610e5981610e1d565b9050919050565b7f4e487b7100000000000000000000000000000000000000000000000000000000600052601160045260246000fd5b6000610e9a82610b7a565b9150610ea583610b7a565b9250828202610eb381610b7a565b91508282048414831517610eca57610ec9610e60565b5b5092915050565b600081519050610ee081610cb8565b92915050565b600060208284031215610efc57610efb610bae565b5b6000610f0a84828501610ed1565b91505092915050565b7f496e73756666696369656e7420746f6b656e20616d6f756e7400000000000000600082015250565b6000610f49601983610d77565b9150610f5482610f13565b602082019050919050565b60006020820190508181036000830152610f7881610f3c565b9050919050565b6000606082019050610f946000830186610d11565b610fa16020830185610d11565b610fae6040830184610b84565b949350505050565b60008115159050919050565b610fcb81610fb6565b8114610fd657600080fd5b50565b600081519050610fe881610fc2565b92915050565b60006020828403121561100457611003610bae565b5b600061101284828501610fd9565b91505092915050565b60006040820190506110306000830185610d11565b61103d6020830184610b84565b9392505050565b7f696e73756666696369656e7420746f6b656e20616d6f756e7400000000000000600082015250565b600061107a601983610d77565b915061108582611044565b602082019050919050565b600060208201905081810360008301526110a98161106d565b9050919050565b7f49434f206973207374696c6c2072756e6e696e67000000000000000000000000600082015250565b60006110e6601483610d77565b91506110f1826110b0565b602082019050919050565b60006020820190508181036000830152611115816110d9565b9050919050565b7f73686f756c642062652067726561746572207468616e207a65726f0000000000600082015250565b6000611152601b83610d77565b915061115d8261111c565b602082019050919050565b6000602082019050818103600083015261118181611145565b905091905056fea2646970667358221220f3c006576e7b53708c8ff53c9b278880484805d20d98a161f508a3162282b1e564736f6c63430008180033",
  "linkReferences": {},
  "deployedLinkReferences": {}
}